:1000000012C021C020C01FC01EC034C01CC01BC0F5
:100010001AC019C018C009C1E1C015C014C013C06E
:1000200012C011C010C011241FBECFE5D4E0DEBF46
:10003000CDBF20E0A0E6B0E001C01D92AE3DB2070A
:10004000E1F75ED050C1DCCFB898C09A8EB582601F
:100050008EBD8EB58F7B8EBD89B7806289BF1092B1
:10006000A600109262001092640010926300109239
:10007000A90008951F920F920FB60F9211242F938B
:100080003F938F939F93EF93FF9386B597B52091FE
:10009000600030916100821B930B9093A8008093C5
:1000A000A700E0916200EF5FEF71E0936200F0E083
:1000B0008091A7009091A800EE0FFF1FEA59FF4F13
:1000C0009183808386B597B590936100809360009B
:1000D0009EB580E489278EBD81E08093A900809140
:1000E000A6008F5F8093A600A895FF91EF919F9146
:1000F0008F913F912F910F900FBE0F901F901895E9
:1001000080E096E928D0A0DF78949DE088E10FB6E2
:10011000F894A89581BD0FBE91BDA89590916400FB
:10012000809162009817C9F3809164008F5F8F718E
:1001300080936400E0916400F0E0EE0FFF1FEA5945
:10014000FF4F808191816AE070E02DD08DE00BD06F
:100150008AE009D0E2CF10BC8CE089B988E18AB985
:100160008EE880BD08952091AA002F5F2F70909196
:10017000AB002917E1F3E22FF0E0E455FF4F808355
:100180002093AA00559A0895CF93DF93EC0121960E
:10019000FC018081882321F0E6DF89918111FCCF69
:1001A000DF91CF910895CF93DF93CDB7DEB76197FD
:1001B0000FB6F894DEBF0FBECDBFAB01BE016F5FBF
:1001C0007F4F54D0CE010196DFDF61960FB6F894D1
:1001D000DEBF0FBECDBFDF91CF9108951F920F926A
:1001E0000FB60F9211248F939F93EF93FF939091EB
:1001F000AA008091AB00981771F08091AB008F5FDF
:100200008F708093AB00E091AB00F0E0E455FF4FBE
:1002100080818CB901C05598FF91EF919F918F918A
:100220000F900FBE0F901F9018951F920F920FB650
:100230000F9211248F939F93EF93FF939CB1E091C2
:10024000BC00EF5FEF718091BD00E81731F0E093E3
:10025000BC00F0E0E254FF4F9083FF91EF919F913B
:100260008F910F900FBE0F901F901895453251053A
:1002700018F4423008F004C0FB011082CB0108954D
:10028000BB274A3031F4992322F4BDE29095819541
:100290009F4F01C0BB27FB015527AA27880F991F35
:1002A000AA1FA41710F0A41B83955051B9F7A05DA5
:1002B000AA3308F0A95DA193009779F7B111B19322
:1002C0001192CB0100C0DC01FC01672F71917723F3
:1002D000E1F7329704C07C916D9370836291AE1701
:0A02E000BF07C8F30895F894FFCF9C
:00000001FF
